:4000000000800020E5030000D1030000D303000000000000000000000000000000000000000000000000000000000000D10300000000000000000000D1030000D103000012
:40004000D1030000D1030000D1030000D1030000D1030000D1030000D1030000D1030000D1030000D1030000D1030000D1030000D1030000D1030000D1030000D103000040
:40008000D1030000D1030000D1030000D1030000D1030000D1030000D1030000D1030000D1030000D1030000D1030000D1030000D1030000D1030000D1030000D103000000
:4000C00010B5064C2378002B07D1054B002B02D0044800E000BF0123237010BDE8010020000000000C450000044B10B5002B03D00349044800E000BF10BDC0460000000019
:40010000EC0100200C450000402292029A1A92467047C046174B002B00D1134B9D46FFF7F3FF00218B460F461348144A121A03F099FF0E4B002B00D098470D4B002B00D05E
:4001400098470020002104000D000D48002802D00C4800E000BF03F037FF2000290000F065FA03F01BFFC0460000080000000000DD03000000800020E80100202C07002054
:40018000000000000000000010B500F0CDF800F013F800F03EF800F04FF810BD10B500F037F800F047F800F0BBF810BD10B5FFF7EBFFFFF7F3FF10BD10B50021012001F0CB
:4001C00039FD124A0021012001F0B2FC0021012001F00CFD0021002001F02CFD03220021002001F0A5FC0021002001F0FFFC0121002001F01FFD19220121002001F098FC7F
:400200000121002001F0F2FC10BDC0467FBB0000704710B500220021002001F0C1FC01220021042001F0BCFC00220121082001F0B7FC10BD7047000010B5264C264A012195
:40024000200001F0CDFA254A0221200001F0C8FA234C244A0321200001F0C2FA224A0521200001F0BDFA214A0621200001F0B8FA1F4C204A0021200001F0B2FA1E4A012187
:40028000200001F0ADFA1D4C1D4A0021200001F0A7FA1C4A0121200001F0A2FA1A4A0221200001F09DFA194A0321200001F098FA174A0521200001F093FA164C164A00214D
:4002C000200001F08DFA154A0121200001F088FA10BDC0460001044020410000384100000003044080410000504100006841000000040440F0400000084100000005044014
:40030000B0410000C8410000E0410000F841000098410000000804401042000028420000704701BE7047000070B5302001F08CFD1A4C80252D062563194801F01FFB00201A
:4003400001F0ACFBA36A0C229343A362A36AB4329343A36200F096F8002001F08DFCE36A1D43E5620F4801F009FB002001F096FB011E0ED1094B9A6A0C218A439A629A6AB7
:40038000B4318A439A62302001F05EFD00F07AF870BD0620FFF7C5FFECE7C0460000034000366E01006CDC0210B5044801F068FD002801D0002010BD0148FCE730010020AF
:4003C0000000020610B5FFF7F1FEFFF7EDFF10BDFEE710B501F036FD10BD704710B5FFF7FCFF10BD10B500F0F9F900F03FF8174CC0221749200003F019FE164B9C60BFF31B
:400400004F8F154A09E099001068405854686050013391688B42F6D30C32104B9A4201D20023F6E70E490AE09A000868844662440020106001334A689342F5D30831094B1B
:40044000994201D20023F6E7FFF764FE000000200000000000ED00E01845000024450000244500002C4500007047000010B5034B034A9A6372B6FFF7F7FF10BD00000340B1
:400480006588EDAC70B5114B9B6A9B0903251D400124AC4001F02EFB64080019E84014D00B4B1860441E0B49200003F0EBFC0130094B1870FA218900200003F0E3FC0130F9
:4004C000064B1860C003064B186070BD000003404C01002040420F0058010020540100205001002010B5002902D003F0CBFC10BD0120FCE7064B1A6908221A611B6901236E
:4005000004497932FF328B50034A13707047C0460003044000E100E0DC030020044A98235B000121D150D358024B20229A6470470000204000050440F0B5C64600B5804638
:400540000F0015001C001E6819600122290000F0B7F92660002803D1266080BCB846F0BD2A003900300003F061FD230000222900404600F055F9EFE7F8B50400134D144E02
:40058000AF190100280000F0BBFD002806D12300320029003800FFF7CFFFF8BD2100380000F0AEFD002809D00028F6D0E0222300D2010021080000F0D7FEEEE72300320081
:4005C00039002800FFF7B8FFEEE7C04600FA03000001000010B5002808D0002908D000F057FC0400002C05D0200010BD034CF9E7024CF7E700F0F4FAF6E7C0460F001A00D4
:4006000010B500280ED00021012000F02BFD0400002C05D101F010FC01F006FC0028F9D1200010BD004CF3E70F001A0070B588B0FFF7C8FE002800D001BE0023079314339D
:400640000393584B0093584B0293694607A800F01FFC002800D001BE6846FFF78DFF002800D001BE01F0E0FB10284ED14F49504801F062FB4F4B0122C02149005A501A60C3
:400680004D4A00214D4801F045FC002800D001BE4A4C236801252B4323604949494801F04BFB9A235B00E550424B802212031A6062B600F08DFA80235B04A3600024694600
:4006C00007A800F015FF06000134079D022D25D0032D36D0012D39D014213B48FFF702FFA04202D8079D002D4FD0384B1B78002BE5D0364B00221A706846FFF781FF00280D
:40070000DDD1013000F0D4FBD9E76846FFF778FF0028ABD1013000F0CBFBA7E76846FFF76FFF002807D02A4B9842D5D1694607A8FFF750FFD0E700F04FFA012000F0B8FBCA
:40074000CAE7694607A8FFF745FFC5E714212148FFF7C8FEA04200D90025002E13D01E4B9E4207D1002DB7D0694607A8FFF732FF0024B1E7142001F033FB694607A8FFF77C
:4007800029FF0024A8E73400A6E76846FFF738FF041E01D02C00A8E700F01EFA012000F087FBA2E7CC020020E0030020F50400008443000000E100E090400000000020404E
:4007C0001D0500007C430000E0930400DC03002002001A008813000040001A0010B500F0ADFB10BD10B503F0D3FB002901D1012010BD0020FCE7000030B583B00D001400BC
:400800006A4601A900F068FB019B2B60009A94466344024A9B18236003B030BD04000000F0B585B00400019115001F00204E00F07DFB02AA03A9FFF7DFFF802149002000F3
:40084000FFF7D0FF002808D080235B00019A9A421DD0EB071DD5002000E01648039BA34203D8029BA34200D91348A6421AD88023DB029C4219D2002815D1EB070BD4396858
:40088000200000F03FFF00280DD00C480BE00020E4E70848E2E7802252000021386803F0E1FBECE7044805B0F0BD0348FBE7C046FC5F000003001A000A001A0004001A00B0
:4008C000F0B5CE4600B582B004000D0000920193194E802149002800FFF784FF002819D00027A64220D88023DB029C4222D2002F1BD10123009A11001940894613420BD083
:40090000019B18682A00210003F082FB00280CD00A4F0AE00A4FE4E7019B18682A00210003F084FB4F4600E0064F380002B080BCB946F0BD034FF8E7FC5F000002001A0058
:4009400003001A000A001A000230800803D001300238FCD1C046C0467047EFF3108072B6704780F31088704700B583B01E4B1B78002B09D01D4A0021002002F04DFF0028A5
:4009800000D001BE03B000BD184B0193184B0093184B194A19491A4802F0D6FE002800D001BE124A1749184803F070F9002800D001BE1649164801F0BFF91649164801F001
:4009C000BBF91649164801F0B7F9164B802212051A60802252051A60802292051A60024B01221A70C6E7C046000600208C050020C0420000DC42000004060020DC40000041
:400A000000002C40F004002060420000610A00008C430000450A00009C430000290A00009443000000E100E010B50348034BC158034A01F009FD10BD00002C403C20000011
:400A40000406002010B50348034BC158034A01F0FBFC10BD00002C40382000000406002010B50348034BC158034A01F0EDFC10BD00002C40342000000406002010B5FFF7D5
:400A800073FF10BD10B5024802F0BCFE10BDC0468C05002010B5174BDB78002B00D110BD154A3423D05CC0B2124902F0E3FE002800D001BE104A3323D05CC0B20D4902F0A6
:400AC000D9FE002800D001BE0B4A3223D05CC0B2084902F0CFFE002800D001BE064A3323D05CC0B2034902F0D3FE0028D7D001BED5E7C0468C050020F004002070B50500C7
:400B000016001C00002803D0002901D0002A05D101BE03E0012001F063F9013C002C14D00C4BDB78002BF5D00B49002003F054F90028EFD0084B40222900002003F078F99A
:400B40003060002803D0002000E0044870BD0448FCE7C0468C050020F004002040001A000F001A00F8B506000D0017001C00002803D0002901D0002A00D101BE402D05D907
:400B800001BE03E0012001F02BF9013C002C13D00B4BDB78002BF5D00A49002003F032F90028EFD0074B2A003100002003F0F8F8002803D13D6000E00348F8BD0348FCE7A9
:400BC0008C050020F004002040001A000F001A0010B5FFF753FF10BD10B5FFF753FF10BD10B5FFF757FF10BD10B5FFF787FF10BD10B5FFF7B7FF10BD10B580F30888884738
:400C0000FEE7704704307047063070474078704704314018704710B504000800FFF7F4FF235C172B01D0002010BD0120FCE70123037070474170704710B504000800FFF7D3
:400C4000E3FF1723235410BD0431002303E00139425CD3189BB20029F9D158420004000C70470000002353600B6001487047C04605001A0000B583B00100042201A803F064
:400C8000D5F9019803B000BD00B583B001924018042201A903F0CAF903B000BD10B582B001006B469C1D0222200003F0BFF9208802B010BD10B50230FFF7F0FF10BD10B5AE
:400CC00004000800FFF79EFF2018FFF7E7FF10BD70B504000D00062826D90B78012B01D0144870BD0800FFF7E5FF0600C31DA3421CD88822520093421AD801002800FFF785
:400D00008AFF002801D10B48EBE731002800FFF7D6FF040031002800FFF796FFA04201D00548DEE70020DCE70248DAE70348D8E70248D6E704001A0008001A0003001A00DE
:400D400010B50123136007330B600021FFF760FF0822024903F06AF910BDC04654440000F0B583B004000E0015001848FFF749FF01902000FFF79EFF0023336000280CD12A
:400D8000019F002F03D0124F380003B0F0BD2A0031002000FFF7D4FFF6E7042803D0062801D00B4FF0E700212000FFF731FFFFF761FF019B984201D0064FE5E72A003100C8
:400DC0002000FFF7BDFF0027DEE7C0460403020103001A0004001A0070B50C0011001D00002815D0002C15D0002A15D023685E1988225200964201D9084870BDC0182A002F
:400E000003F014F923689C46654425600020F4E70348F2E70248F0E70148EEE703001A000F001A00F0B5C64600B505000F001400FFF740FF060008CC984600233B60002119
:400E40002800FFF7E5FE0200330021004046FFF7C3FF80BCB846F0BD00B583B001924018022201A903F0E2F803B000BD10B50A000221FFF7F1FF10BD70B50400080015002D
:400E8000FFF7C0FE01002A002000FFF7E5FF70BD002806D0002906D0002303604B60002070470248FCE70148FAE7C0460F001A00012800D901BE054B1870BFF34F8F044B29
:400EC000044ADA60BFF34F8FC046FDE7C000002000ED00E00400FA0570B504000E001500012800D901BE0748FFF78BFEE4000419002E01D023683360002D01D063682B60F3
:400F0000002070BD00FA030000B583B0012800D901BE002201A9FFF7DFFF002801D003B000BD019B18685968FFF766FE10B50248FFF767FE10BDC0460000000010B500F08C
:400F400073FF102803D0054B00221A7010BD034B18780028FAD0FFF7D7FFF7E7C000002070B50500140000230B60FFF7A3FE042803D008480023636070BD00212800FFF7CD
:400F800047FEFFF777FE230001220021FFF748FCF0E7C04603001A0030B583B004000D00130000220192882101AA4900FFF71CFE074B984203D0002804D003B030BD012389
:400FC0002B70F8E721000198FFF782FEF5E7C04640001A0030B583B00C000192FF2505400800FFF724FE29002000FFF723FE01992000FFF73BFF019D29002000FFF724FE82
:40100000020029002000FFF737FF01992000FFF713FE019BD91D962301AA2000FFF7E8FD03B030BD70B50500002915D001235B422878584004090F221040094E8000835975
:40104000634018091A40920093594340013901350029EDD1D84370BD01235B42FAE7C04614440000F0B583B00D00012800D901BE6A4601A9FFF730FF041E0AD1019F009E52
:401080002A0031003800FFF7CDFFBB59834200D0014C200003B0F0BD02001A0070B504000E001500FFF706FE00233360042807D0012805D0104D114B9D420FD0280070BD80
:4010C00000212000FFF7A4FD0078012801D90B4DF1E72900FFF7C6FF051EECD100212000FFF796FD002D05D101230370012333600025E3E70023F8E703001A0002001A0064
:4011000070B505000E000948FFF77BFD0400011F32002800FFF786FF6419043C2368984201D0034870BD0020FCE7C0460001000002001A00F0B5DE4657464E46C0B582B08D
:4011400005000C001600002808D0FFF7B3FD042802D000252A4F05E0002700E0294F002F08D000252560380002B0E0BCBB46B246A946F0BD00212800FFF74AFD8146FFF793
:401180008DFD0090824602212800FFF741FDFFF785FD82452DD8009BC51AEA1D88235B009A4229D81848FFF72CFD83461748FFF728FD019031005846FFF7A2FF824600287D
:4011C00005D05346002B0AD03D005746CAE73300002201995846FFF773FB8246F1E73168009B9C4661442A00484602F028FF5746B8E73D00064FB5E73D00054FB2E7C0463A
:4012000003001A000F001A0000FA03000001000004001A00F0B5D646474680B583B082460E001400170008CF9846FFF743FD050000233360072808D8204D00236360280065
:4012400003B0C0BCBA46B046F0BD00215046FFF7DFFCFFF70FFD060004215046FFF7D8FCFFF708FD019008215046FFF7D1FC02002B00083B39004046FFF7AEFD051E09D1AC
:40128000220061684046FFF7CDFE019B984201D00B4D01E0002D09D0002DCED12300012261683000FFF70CFB0500C6E72300022261683000FFF7B4FA0500EDE703001A00E2
:4012C00008001A00F0B5D646474680B583B082460E001400170008CF9846FFF7EBFC050000233360072808D81C4D00236360280003B0C0BCBA46B046F0BD00215046FFF7C3
:4013000087FCFFF7B7FC019004215046FFF780FCFFF7B0FC060008215046FFF779FC02002B00083B39004046FFF756FD051E08D1220061684046FFF775FEB04201D0084D8B
:40134000D3E7002DD1D12300012261680198FFF7B7FA051EC9D0034DC7E7C04603001A0008001A0002001A00F0B5DE4657464E464546E0B583B005000E0001921C1E1FD05E
:4013800001280DD9002399469A46284F002F1CD0380003B0F0BCBB46B246A946A046F0BD2348FFF72EFC82462248FFF72AFC81462300002201005046FFF782FA0700E5E7D7
:4013C000002399469A46194FE0E7ED0023685819FFF750FC80462B1D9B4620685844FFF749FCB04502D1019B9842D1D0320029002068FFF749FC019A59462068FFF744FC6E
:4014000025684B461E1F220031002800FFF70AFE020031002800FFF737FC2300002249465046FFF7FDF90700B2E7C0460F001A0000FA030000010000F8B50400150000204B
:4014400008602000FFF736FC092801D00D48F8BD00212000FFF7DCFB077801212000FFF7D7FBFFF707FC060005212000FFF7D0FBFFF700FC02002B0031003800FFF774FF22
:401480002F61E4E703001A0010B50400080011001A00313C1B2C25D8A400144B1B599F46FFF7B8FE10BDFFF70DFFFBE7FFF758FDF8E7FFF7F3FDF5E70123029C2370FFF717
:4014C000B1FCEFE7FFF7AEFCECE7002353600133029A13700020E5E7FFF7AEFFE2E7FFF729FEDFE7FFF7BEFBDCE7C046A4430000F0B585B006000C008F68002303930B216B
:4015000069440B70E368002B00D101BE2368002B09D0A368002B08D03368012B07D91F4D280005B0F0BD01BEF3E701BEF4E7E2680B2169443800FFF72FFD051E0AD138005D
:40154000FFF764FB382810D03B2816D03368012B1AD0134D0B236B441B78002BE0D1039A39002800FFF736FDDAE72300320003A93800FFF7F5FB0500ECE70223336009335D
:401580006B4401221A70E5E70A336B440093230003AA3900FFF778FF0500DBE70F001A0005001A00144B9A68130F1B07A02109068B421CD0F02109068B4201D00F4817E0C5
:4015C0000F4B9C466244132A0FD892000D4B9B589F460D480CE00D480AE0002008E00C4806E00C4804E00C4802E00C4800E0002070470B48FCE7C0460000104023005000E9
:40160000FFFFFF0F5C4400000100520005005200080050000900500021005200FF005200040052008023DB02984204D2FF2303420CD0002070478022D200074BC3189342C9
:4016400006D2FF23034205D00020F3E70120F1E70020EFE70120EDE7000C00F08023DB02984201D2000A7047024B9C466044000AF9E7C046000C00F000B583B0084B009301
:40168000084B0193084B6A469A60084A5A60C046FFF788FF064B802212061A6303B000BDB6E900000007002000001040160000800000034010B5044B044A9A60044A5A606C
:4016C000C046FFF76FFF10BD00001040B6E800001500008000B583B0064B0093064B0193064B6A469A60064A5A60C046FFF75AFF03B000BDB6EA000000070020000010409E
:4017000017000080F0B5C3B004000D00FFF7A6FF06002000FFF786FF002848D0002D4AD080225200290002A802F080FC720A1206224B13430093FF230193214B6A469A603B
:40174000204A5A60C046FFF72DFF051E30D1FFF704F90700FFF790FF051E03D03800FFF700F925E0FFF7A6FF051EF7D1144B6A469A60154B9C4210D9144B00930196104BBE
:40178000134A5A60C046FFF70DFF0400FFF7A2FF0500002CE2D02500E0E70E4B0093009B36041E430096064B0B4A5A60EAE70B4D280043B0F0BD094DFAE7C046B6D70000CD
:4017C0000000104004000080FFEFFF0FB6EB000018000080B6D800000500008021005200F0B5002800D197E0002A00D196E0072900D901BE1368012B00D901BE0F235468DF
:401800009C4300D001BE137A0F24A34300D001BED368032B00D901BE1369012B00D901BE5369012B00D901BE1368072900D901BE012B00D901BE002B00D069E001338B40FA
:4018400043645568072900D901BE0F232C009C4300D001BE4E007618836807242700B740BB432C40B4401C438460846901231E008E40B443ED082B408B4023438361177AC5
:40188000072900D901BE0F233C009C4300D001BE234BC3181B0A234CA44663441B021C688D00AC460F26AE40B4430F253D406646B5402C431C60D568082900D901BE032D69
:4018C00000D901BE4900C46803231E008E40B4432B408B402343C3601369012B00D901BE8168114C21401B068024640423400B4383605369012B00D901BE82680B490A4063
:401900005B06802189040B40134383600020F0BD01238B40036494E70548F8E70448F6E70000FCBF00024000FFFFFFFEFFFFFFFD01005A00014B18687047C046180700208C
:401940000B4B1B6B002B01DB00207047084A094BD15889001C2319404B015B1A9A01D31ADB005B189801044B9C466044EDE7C04600000340080F000000366E01F0B5C6462E
:4019800000B50400304B1B6B002B58DA2F4B984213D02F4B984210D02E4B98420DD02E4B98420AD02D4B984207D02D4B984204D02C4B984201D02C4842E0FFF7C1FFA042A9
:4019C00001D100203CE0294BE018294902F05AFA0400FEF7C2FF05001B4B0021254A9950254AA2181278D2B224481A50F12212019950234AA2181278D2B222495A50A40805
:401A00003220FEF7A1FF002C04D12800FEF7A9FF002015E00C4B9846164FDB590726B343621E324013434246D3513220FEF78CFF4346D859B04334400443DC51E5E7124872
:401A400080BCB846F0BDC0460000034000366E01003FAB010048E80100512502005A620200639F02006CDC0201004A0000CA91FE40420F00080F000065F3FF0F0C0F000024
:401A80004CF3FF0F180F000003004A00024B9B6A032018407047C0460000034010B50400012801D9104810BDFFF7F0FF844217D0002C03D10D4B1B6B002B07DB012C01D02C
:401AC0000B48F0E7FFF736FF00280BD0074A936A03218B43032004401C4394620020E2E70020E0E70248DEE701004A000000034003004A0070B50D4B9D6AAD0803231D401C
:401B00000124AC40FFF7C2FF002806D0012808D000236008C018E84070BDFFF711FF0300F7E7FFF707FF0300F3E7C0460000034010B500280FD10B290DD8FF2A0BD81348D0
:401B4000803189000B58124C23401206120C1A430A50002002E0012801D00E4810BD032910D880235B029A420ED20848C03189000B58094C23401202084C22401A430A50C5
:401B80000020EBE70348E9E70248E7E700000140FF00FFFF01004A00FF0000FF00FFFF001F281AD8002901D10B2A0AD9012903D0022904D00B480FE0032A02D9F8E7042ADC
:401BC0000DD88901FF231940C03B1A40114340308000054BC150002070470248FCE70148FAE7C04601004A0000000140002801D10B290AD9012803D0022804D00A4810E0F4
:401C0000032902D9F8E704290CD88001FF231840C03B1940084305490843054B18601B68002070470048FCE701004A0000FF008000000140002801D10B290AD9012803D015
:401C4000022804D00A4810E0032902D9F8E704290CD88001FF231840C03B194008438021C9050843034B1860002070470048FCE701004A0000000140022811D8012809D070
:401C800008498B6A30229343000110401843886200207047034B1B6B002BF1DB0248F8E70248F6E70000034003004A0001004A0004291DD00AD8012911D0022904D10E4BF3
:401CC00000221A70002009E00C4807E0082904D1094B00221A70002000E008487047084B1B78002B06D1044B01221A700020F5E70020F3E70148F1E71D070020FF00420067
:401D00001C070020094B9A68094B9A4204D010308000084BC0587047002905D01030044A830098589950F6E701BEF7E700ED00E00000002000000000F0B5C64600B5002847
:401D400044D04368032B00D901BE0023C25E4468002A1EDB93081E4FC0339B00DD59AC4603263240D200FF25A8462E0096406546B5432E00A4014546254095403543DD51AA
:401D8000144B9A68144B9A421AD0002080BCB846F0BD0F231340083B9B0806339B000D4DAC4663445E6803252A40D200FC352F009740BE43A4012540954035435D60DFE728
:401DC0000023C05EFFF79EFF0020DFE70348DDE700E100E000ED00E0000000200100560010B5040006E0084B1868FEF7ADFD074B9C46644480231B029C42F4D8044B1868DF
:401E00006043FEF7A1FD10BD500100200080FFFF5401002010B5034B1B785843FEF794FD10BDC04658010020024B5B6D192018407047C04600000340014B19225A65704785
:401E400000000340FEE70000102803D9202813D8012000E00020094B1A6B03218A4301400A431A631B6B10229343002800D010200343024A136370470220ECE70000104043
:401E800030B500283CD0C368002B3BD00368002B3AD00579AA001E4BD258002A28D0140000E01A005369002B07D0824205D0197E027E9142F5D81C00F3E7824226D02369D3
:401EC000002B08D0636943610461002B00D018616061012015E0027E237E9A42F2D24461002303612061AD00094BE850012008E0AD00074BE850002343610361012000E0AC
:401F0000002030BD0020FCE70020FAE70020F8E72007002030B5002800D18CE0002A00D18BE053681B061B0C9468A4048025ED022C402343D4682404C025AD022C402343C3
:401F400014692406E025ED042C402343147F002C5FD0012423430C1DA4012350D368002B59D18B01C3180933FF3300241C601369002B0AD18B01C3181C000D34FF345569FC
:401F800025601133FF3394691C608901401803001533FF33116819600F21936A1940136B1B02F024240123401943936B1B04F024240323401943136C1B071B0C1943936C09
:401FC0001C01FF252C40214303002133FF3319600323516A0B40D16A0C01302121400B43516B0902C024A40021400B43D16B89010D402B43516C8C000C2121400B430100B5
:402000002531FF310B60136A3930FF300360002030BD00249EE7012B06D08B01C3180933FF3301241C60A2E78B01C3180933FF3314681C609BE70248EAE70148E8E7C046F8
:402040000100B60010B50B6A002B00D0984710BD10B5A023C358DA0607D51A0615D501228A720E321A40012A00D010BD9F328350835883581B0604D400234B714B69984719
:40208000F3E7184B0422C250EFE75A0622D58B7A022B0DD0032B0ED0042BE6D1A033124AC250043B0222C250C35800238B72DCE78B699847D9E7CB7A002B08D0CC79036A3C
:4020C0007F2293432240134303620023CB7200238B72CAE79B06C8D58B7A022BC5D1CB699847C2E7242000008080000070B504000D00836C5B070FD50B6998470023A4226E
:40210000A350043A0121A150EB72AB72EB86AB712B7280232362236A70BDF8B514009278072A08D0A278052A05D0627880256D426A40D2B262701A7AD2B2CA40D20705D5E0
:402140001A7A0120884082431A72F8BD022262732569002DF9D0890109188E6B40273A003240374200D00122A678072E09D0A678052E06D06678F6B20F6B802139408E42FF
:4021800003D02178C9B2A847DFE702210A436178802676427140C9B26170F2E7F0B5C64600B588469F22920083588258120A1343DBB2002401E05B080134002B40D0DA0712
:4021C000F9D5A5012D1881229200AE1832683668360A3243D2B28226B600AE1937683A4032603668D6071BD58026B600B446AC44664636680127BE4361460E6066003619FC
:40220000F600464445218C46B44461460F703A363778AE6B0F218E430F403E43AE63AD6B950706D565002D19ED004544453502262E70550700D501BE1207BCD501BEBAE7C4
:4022400080BCB846F0BDF0B5C64600B513004C006218D20038329A1801258D40C562C56A5D7A6418E4001C1938342678F409A0468E013618346B2402E027FF003C40776BA2
:40228000766B360A3743FFB23C43023C67427C41E4B2022D02D14546254301D0FFF73DFF80BCB846F0BD30B50400082A00D90822002004E01D022B4385002B510130824295
:4022C00005D90B5CC507F5D485002B51F6E730BD30B50500A423C458C3581B0A1C430F231C40023CA24200D81400002007E0820053595259120A1343DBB20B5401308442FC
:4023000004D9C307F3D483005B59F6E730BD0000F0B5C64600B504000D001600002859D0002959D0002A59D00B78022B00D901BE9D239B000122E2500120FFF76BFD294AC1
:40234000294BD35CDBB22949294A8B50636A022213436362A36C023290461340A364CC239B000632E2508027BF01224BE3510220FFF750FDE35942469343E3510220FFF7A7
:4023800049FDE35908229343E3511B4BEA68E2501A4B0622E2501A4B0022E2502B7873722B7C013B5A42534133736B6833632B89B3862B78002B13D1124B7362124BB36218
:4023C000124BF3629C239B000022E250002080BCB846F0BD0E48FAE70D48F8E70C48F6E70B48F4E700F0FF0F3F030000000003400C0F00000F0000B83020000028200000AF
:402400001020000049260000312800000D2900000100EE00A4230022C250043B0132C250836C03321343836480239B01C3587047836C04229343836480239B01C358036AF5
:402440007C32934303627047F0B5C64600B507000E009046174BC150C3580B0602D4340A002505E01100FFF799FEF8E764080135002C07D0E307F9D5424629003800FFF7F5
:40248000E2FEF3E7F30706D4730709D4B3070CD480BCB846F0BD41463800FFF7D3FDF3E741463800FFF7D4FDF0E741463800FFF71DFEEDE72020000010B50822FFF708FF2A
:4024C00010BD000070B504001D0000291AD0002A14D16B79802149425940C9B269710F200300134019430B021943A423E150043BE050E3580223AB72100070BDFFF7D3FE77
:402500000200E6E7A423054AC250043B0622C250C3580323AB720020EFE7C04680800000002A10D01960402A01D8D2B200E040221A71A42200218150043A0B3181508258DD
:4025400002229A72704704229A72FBE710B50A790968FFF7BDFE10BD02290CD005D8002907D0012906D15A6104E0032902D1DA6100E01A6170479A61FCE710B50B00890121
:402580000818816B0F24A1438163816B5900C918C900521845320423137010BD10B54B7A002B10D0022B0FD000244B7A5B0160221A4022439C239B00C250C258C258802165
:4025C0000A43C250C35810BD044B2022C2508C239B003532C2501024E7E7C046F012000070B505000E000023CB8600228A7183629E2292008350002405E0320021002800CD
:40260000FFF7BBFF0134072CF7D970BD70B50300507A02280FD08025AD00D48EE618107B00280AD0012018408019854207D30C60D086002070BD958EEFE70020F4E701484C
:40264000F8E7C0460200EE00F0B5C64600B582B007000D0016008B790F241C40013C4B78002B58D12B78002B00D183E00622AA5663001B19DB00F3181800453000218846B9
:402680000170A87984461800383061460170013041460170698840331980E97903230B40012B52D0002A56DA0D2063001B19DB00F31819003A310870443300211970A3011A
:4026C000DB198021890059180C200860002A44DB812292009A1810211160BA6A0F39A1400A43BA6262001419E40036193A363178CAB2092938D0092A38D90D2A38D10C21ED
:402700009A6B0F2082430A439A639B6B002002B080BCB846F0BD888801A9FFF777FF0028F5D1019B9AB263001B19DB00F31842331A80A301DB19104A9A18019911600F4A07
:4027400094466344019A1A608CE7002A01DA0720ABE70520A9E70920A7E7084A9A181168054A9A181160B3E70821C9E70021C7E70021C5E70020CAE710120000181200000B
:4027800070B5050016000F240C40013C072C20D82100FFF7F2FEAA6A0123A3409A43AA629E2189006A589A436A50EB62EA6AA00140198222920094466044CA3AFF3A026058
:4027C0000268B2799A43B271327A9A433272002070BD0148FCE7C0460100EE0030B50139072900D901BE4B005B18DB00D31838331B785BB2002B18DB137A012425008D4071
:40280000AB4313724B005B18DB00D218130045331C703A321278890109188B6B0F208343024013438B638B6B30BD01BEE4E70000F0B5C64600B5069D4C006418E4002C1912
:4028400040342488A4B29C425BD32C7A012637008F40BC432C724C006418E4002C19270045373E7039342478A046FF241C4027028E01B44660443C4344639CB2240A464632
:4028800034430463002B10D14A005118C9006D183A352978826B0F24A24321400A438263826B180080BCB846F0BD2C7B002C26D05C0801263340E318002406E06600975B75
:4028C000912676018619376001349C42F6D34B005918C9006D183A352A78836B0F218B430A4013438363836B0020DBE7175D8826B6008619376001349C42F7D3E7E700245E
:40290000FAE70148CEE7C0460100EE00F0B50500059C8F013F18386B0002E026F60030407E6B7F6B3F0A3E43F6B23043023800262660834229D3002817D02060069B1B7B5B
:40294000002B20D04308012420401818002409E066008B015B1991277F01BC4663441B68935301348442F3D30020F0BD8B015B198826B600B44663441B6813550134844206
:40298000F4D30020F1E70024F9E70148EDE7C0460100EE00F8B5CE46474680B5060015004C1E072C00D9B9E0FDF7D7FF804663001B19DB00EB1845331B78042B00D1B3E0F2
:4029C00063001B19DB00EB1845331B78032B20D063001B19DB00EB1845331B78012B29D00023994600274046FDF7BBFF4B46002B00D194E063001B19DB00EB1838331B78C3
:402A00005BB26A7A012A00D990E0002B7BDB002785E02A7A023BA340DBB213432B7263001B19DB00EB18443300221A70012399463F4FD8E72A7AA340DBB213432B7263008E
:402A40001B19DB00EB181A00453200211170716A726A0A4004218A437262726A3A331B780D2B0BD063001B19DB00EB183A331B78092B19D0012399462D4FB4E7A3019B1957
:402A80009A6B0B318A4303390A439A639B6B726A736A134004218B437362736A11420DD101239946224F9EE7A3019B199A6B0F218A4307390A439A639B6BE8E74046FDF76E
:402AC00050FF3227002F1AD02B7ADBB2E340DB070DD5726A736A134004218B437362736A114208D00120FFF795F9013FEAE7012399460F4F77E7012399460D4F73E70123CE
:402B000099460B4F6FE7A401A4190A4BE3181B68094A944664442360002700E0044F3800C0BCB946B046F8BD014FF8E7004FF6E70100EE00181200001012000030B501390C
:402B400007292AD84B005B18DB00D31845331B78042B24D04B005B18DB00D3181C0045342478013C65426C41E4B21D0044352C7038331B785BB2002B0DDA8D248B011818D9
:402B80008463836B4B005918C9005218453203231370002030BD8924F0E70248FAE70148F8E7C0460100EE0030B50139072959D84B005B18DB00D31845331B78042B53D0F7
:402BC0004B005B18DB00D3181C0039340025257044331B78002B1BD04B005C18E40014194534013525708C010019056B8024A54305635918C90052183A321278836B0F2118
:402C00008B430A401343A3438363836B002022E04C006318DB00D318453300251D708B01C018036B8035AB4303636118C90052183A321278D3B2092A0ED0092B0ED90D2B2D
:402C40000ED10C22836B0F218B431343802293438363836B002030BD0822F3E70022F1E70022EFE70148F6E70048F4E70100EE00052809D88000064B1B589F46002000E047
:402C8000044870470448FCE70348FAE70348F8E7AC44000005002200010022000400220070B5F823CD58AC6EF53B2B700023AB70EB70EE6D002E09D02B0000220021002059
:402CC000B04703E02900A06898472468002C04D063681B68002BF5D1F7E770BD0378DB090B7002785209032313404B7002781F2313408B704378CB708378C2781202134392
:402D00008B800379427912021343CB808379C279120213430B81704770B504008288130A032B2ED016D8012B24D0022B10D1D2B24B6D197B8A424FD21B699200D3585A6860
:402D4000C2609378D278120213438382002010E027480EE00F2B0BD14B6D5B68002B3DD0C3609A78DB781B0213438382002000E01F4870BD4B6D1B68C360122383820020EB
:402D8000F7E7D2B2486D8368EE2A19D09D68002D28D01B78002B27D09A4227D29300EB58002A11D00068007C82420DD1002B0BD18B6D002B0DD09847031E05D10C48D8E705
:402DC0005B68002B0CD01B68E3601B78A3820020CFE70B000C33F7E70548CAE70448C8E70348C6E70248C4E70148C2E70048C0E7020022000331C16001238382002070474D
:402E000030B5C2880B78052B11D14B6D1C69CB78094DAC4663449B001B591B78934208D989180431C16001238382002030BD0348FCE70248FAE7C046FFFFFF3F020022001B
:402E40000B78052B02D0C388002B30D18378012B2BD0022B0FD0002B01D017480AE08B78026913700023026953700369C3600223838200207047C2880F2313400A6F013B8D
:402E8000072B0ED85900CB18DB00D21845321378DBB21A1FD2B2012A0BD9032B03D00023DEE70523F5E7023BDAE70023D8E70248E0E70148DEE7C0460200220003790A6F93
:402EC000D3710120D072002B03D004230B70002070470323FAE70000F0B583B006000F001500002826D00024134803E0134800281FD10134B4421DD2A300DB591A68002322
:402F000069464B7001330B7093788B71D378CB7153791B02127913434B80E86E2A6F89790F230B40013B072BE0D8536A69469847DDE7014803B0F0BD020022000100EE00F6
:402F4000F0B5C64600B580460F0014001E00002000E02468002C0AD062689568002DF8D03300A26839004046A8470028F1D080BCB846F0BD70B504000E001500074800E060
:402F80002468002C09D06368DB68002BF8D02A00A168300098470028F2D170BD0200220070B504000E001500074800E02468002C09D063681B69002BF8D02A00A168300050
:402FC00098470028F2D170BD020022008B7E012B01D00F487047CA7803799A4201D00C48F8E7CB881A1F012A0ED8042B0AD0C368002B0BD0CB601A785B781B0213438B821D
:403000000020E7E78368F3E70148E3E70048E1E70200220070B505000C004B6D9B685868002805D02900FFF7D1FF002808D000E00448236E002B03D02200002128009847F4
:4030400070BDC0460200220010B50A004B6E002B02D00021984710BD0048FCE70200220070B5040005003435AB7E002B02D0264D280070BD016FC06EFFF768FA83B248223E
:40308000A25A9A423CD30004010C206C8446614421644A26A05B1818A053D21A92B24823E252002A11D1230034331B7F002B29D02300343300221A77626C22645B78012B57
:4030C00009D0022B16D0104DD2E7236FE06EFFF727FA0025CCE722002900A06EFFF760FF0500002DC4D1236FE06E00220021FFF7E9F9BDE721002800FFF7A6FF0500F0E72B
:40310000014DB5E7004DB3E70200220010B50400F823C858FFF7A4FF002803D0A0230322E250E35810BD000010B50400030034339B7E012B01D01E4810BD4733C25A002AA4
:4031400004D103003433DB7E002B2CD0002A08D123003433DB7E002B03D0230034330021D976236F216CE06EFFF7ACF981B20004000C236C9C46604420644822A35A5B1AF2
:403180009BB2A352002B10D123003433DB7E002B01D00020D0E7236FE06E00220021FFF7BFF90020C8E70020C6E70020C4E7C0460200220010B50400F823C858FFF7B4FFFC
:4031C000002803D0A0230322E250E35810BD0000F8B506000F001500002810D000240848B4420CD2A300DB591B6899782A6FE86EFFF7C6FA002801D10134F1E70048F8BD77
:4032000002002200F8B50C00CB78013BC58886880A78052A43D1626D12699B009B581A78AA423ED99B68AA00D7583B78B3423AD963191B79DBB2B34201D1002030E06319FE
:403240001B799B007A689B58187A59682200FFF7BFFF002813D0002809D1E76D002F04D023002A0031000230B847002810D0002816D101236370F6B26419267110E07B6871
:40328000B200D358187A59682200FFF725FEE2E72300A26E31002800FFF752FEE7E70348F8BD0248FCE70148FAE7C0460200220010B50B78052B02D0C388002B22D183780B
:4032C000002B03D0022B0CD00F4810BD8388012B01D00D48F9E78B78022293438B700020F3E78388002B01D00748EEE7C2880F3313400A6FC86E1900FFF756FC0028E4D07E
:403300000148E2E70048E0E70200220010B50B78052B02D0C388002B23D18378002B03D0022B0DD0104810BD8388012B01D00E48F9E78B7802221343DBB28B700020F2E730
:403340008388002B01D00848EDE7C2880F3313400A6FC86E1900FFF7F1FB0028E3D00248E1E70148DFE7C0460200220010B504000120FEF735FD601E10BD0000F0B5DE464E
:4033800057464E464546E0B587B088464B6D1B69820003929B581A7802929B689A460023994600205346019370E004AB98884A7912020B791343984231DA4B791B020A7900
:4033C000134304AA93802AE00133B20079685258117A994223D9526899008A58116888780F220240A242EFD15B46002BDDD1002E02D1013304AA137004AB9871CB7804AA8B
:40340000D3714B791B020A79134304AA53804B791B020A79134304AA938001239B46013663465F593B78B34201D90023CDE75346AA461D004346D86E1A6F04AB99790F23AB
:403440000B40013B072B1BD8536A04A99847002818D16D080134002D15D0EB07F9D50822002104A800F0FEFD012304AA537000239B4600262A005546019B9C469246CFE758
:403480000E48E4E70E4801239C46E144029B99450CD243465B6D1B69039A9B589B684A4692009B581D8901249246D4E707B0F0BCBB46B246A946A046F0BDC0460100EE0063
:4034C00006002200F8B5CE46474680B50C0085882E1E09D04B6D1B7BAB4210D2334E3000C0BCB946B046F8BD096FE06EFFF778F801236370EDB2E57003332370EFE76B1EB0
:403500009946081D0822002100F0ACFD216FE06EFFF766F821004846FFF730FF804600281BD1E76D002F05D02300002229000120B84780464346002B0FD1A76E00E03F68E7
:40354000002F0AD07B685B68002BF8D02200B9683000984780460028F1D04346002B1ED1636D1A694B469B009B585B68DF79216FE06EFFF713F87B060CD5A37801221343A3
:40358000DBB2A37001236370EDB2E570043323704646A4E7A37801229343A370F2E7216FE06EFFF71DF8014E99E7C0460200220010B5837E012B06D0C3780B2B2CD89B00E5
:4035C000164AD3589F46C378082B10D008D8002B10D0062B02D1FFF79FFB1EE010481CE00A2B02D1FFF70CFC17E00D4815E0FFF701FC12E0FFF724FC0FE0FFF75FFC0CE0CE
:40360000FFF760FF09E0FFF7FDFD06E0FFF750FE03E0FFF77BFE00E0014810BDC44400000200220070B5040005003435026F416CC06EFEF741FF2900606CFFF74FFB00234E
:403640002364002248216352023163523433E35CAB76EA762A776B78012B14D9022B0FD121002800FFF7D6FC0600002E09D13423E25C230034339B7E9A4213D02A4E00E05C
:40368000294E300070BD002B05D121002800FFF78FFF061EE9D022002900A06EFFF76AFC0600E2E7A28F002A14D0012B05D04821615A8A4208D01C4EE3E74821615A8A42DB
:4036C0000CD24821625209E04C20205A814205D9154ED6E74821615A002922D1002A19D0012B0ED14733E15A8A4206D9413B0B405A42534122003432D3762000FFF714FD92
:40370000BFE7616C21644823E25A236FE06EFEF707FFB6E7236FE06E00220021FEF7D2FEAFE7014EADE7C0460200220010B50400F823C858FFF776FF002803D0A023032295
:40374000E250E35810BD0000F8B5060015000698079C002B3ED000283ED0002C3ED0002E3ED000293ED0002A3ED0E666226700222270E270A2660768676487884C202752A1
:4037800063651A4B2363E265A26522666266F823EC502A003000FEF7BBFD041E01D02000F8BD2B00124A00213000FEF7D5FE2B00104A01213000FEF7CFFE2B000E4A0221B3
:4037C0003000FEF7C9FE2B000C4A03213000FEF7C3FEE4E70A4CE2E7094CE0E7084CDEE7074CDCE7064CDAE7054CD8E76D330000A12C00002D370000B53100000D31000005
:403800000100220010B50400016FC06EFEF710FE00232370E37010BD70B506000C00150002231370116FD06EFEF7F4FD002E1CD0002C03D00BE020002B6B98472B78052B21
:40384000F9D1002012E020002B6B984704002B78052B01D0002CF6DC002C01D0002005E02800FFF7CFFF024800E0002070BDC0460300220010B503000A6FC86E1900FFF71B
:4038800089F8002800D110BD0048FCE70600220010B50400C86E0A6F611E07290DD84B005B18DB00D31845331978CBB2002905D12100FEF793FF002010BD0523022BF7D0A8
:4038C0001800FFF7D5F9F7E7F0B585B0050003921A000A98C76E036F6E1E072E29D87400A419E4001C1945342478E0B2022C05D000231360FFF7BCF905B0F0BD3500072E74
:4039000000D901BE6C006419E4001C193834207840B200280BDBDC6A01930092039B0A0029003800A0470028E6D00348E4E701BEF1E70520DCE7C04606002200F0B583B014
:4039400004000E00D86E1F6F631E072B1FD85D00ED18ED007D1945352978CBB2002917D1611E072900D901BE4B005B18DB00FB1838331B785BB2002B00DB01BEBC6A0097A9
:4039800013003200A047002807D0054805E00523022BE5D01800FFF76BF903B0F0BDC0460600220010B5002812D0002912D09C6E4160826000220260002C06D02300246804
:4039C000002CFBD11860002010BD98660020FBE70148F9E70048F7E701002200FF2318400B7DDBB2834208D04C23CB5CDBB2834201D0FF2002E0012000E00020704700003A
:403A000070B504000D0016004378012B01D0204870BDC088FFF7E2FF022834D8E378212B12D0222B1BD0202B08D09423EB58002B2BD03200290020009847E9E7193BA382F1
:403A4000063B23770020E3E7C100091AC900183169180431E1600723A3820020D8E72479C3001A1AD200AA18110024310C702332127802210A43D2B2191AC90069182331B8
:403A80000A700020C4E70248C2E70148C0E7C04602002200C300181AC000081870470B6F013807280AD842001018C0001B1845331B78DAB2002B02D1012003E00522022A1B
:403AC00001D0002070470120FCE70000F8B504000D0016004378012B01D01848F8BDC088FFF77CFF0700022824D8E378202B08D09823EB58002B1FD03200290020009847A3
:403B0000ECE7C600301AC000183028180430E168072200F08BFAF31BDB00EB1823331B7801221343DBB2F11BC900691823310B700020D3E70148D1E70048CFE70200220042
:403B4000F0B5DE4657464E464546E0B583B00F001100019200233B703822BB54002800D18AE04B6D1B69484A9446604480001B589946002600239A469B46002425E053689F
:403B80001B681D68E2B25B46DB0098465946591AC90079180A75A87884460F206346184034239C468C4463461870687900022D79284348835B464146CB1ADB00FB182C33B7
:403BC0001A70013601239B4601344B461B78A34247D9A3004A4692689B585B6898461A6813685B79022BCAD00A2BEDD1002516E00F2319405346DB0050461B1ADB00FB1882
:403C00001800333001705179090212790A431A830078C0B20199FFF73BFE0136013543461B681A7AAA4219D95B68AA00D3581A6891780223D356002BDADA0F23194053463C
:403C4000DB0050461B1ADB00FB181800323001705179090212790A43DA82DEE701239A46B2E70223B3429B415B423B70063E73425E41F6B23823FE54002003B0F0BCBB46AF
:403C8000B246A946A046F0BDFFFFFF3FF0B5DE4657464E464546E0B589B00E1E019200D170E0002A00D16FE0002508E0020041E00022E900491BC90071188A600135012D92
:403CC00043D803AA314C21680391A1889180A179917105AB9A460834190088CC88C18C46218864462180EB009B465C1BE40034191C239846A044039BE361938899464346EA
:403D00004946998092799A712200283257460ACF0AC2170063461A883A805B46591BC90000228A55E2602261233422700028BDD0AA001258E900491BC90071184A60002824
:403D4000B6D0AA1C92001258B3E7002298217250043972509032019BB3500D4A72670D4AF26780220C49B15031007031300084303200FFF717FE09B0F0BCBB46B246A9464C
:403D8000A046F0BD0548F6E70448F4E7F4440000413B0000013A0000CD3A00000100220070B50D0016001C00022800D901BE2100FFF770FE0378002B01D1064870BD322313
:403DC000C05CC0B25E33E35832002900FFF7B6FDF4E7C0460100220010B50C00022800D901BE2100FFF756FE03000278D0B2002A00D110BD3322985CC0B29023E158FFF7FF
:403E00004EFEF6E710B50C00022800D901BE2100FFF740FE03000278D0B2002A00D110BD3222985CC0B29023E158FFF738FEF6E7F0B585B00D0016001C00022800D901BE20
:403E4000002303932100FFF725FE07000378002B02D1039805B0F0BD3323C05CC0B25D33E358009303AB32002900FFF72DFD0028EFD13323F85CC0B25D33E158FFF708FD9F
:403E8000E7E70000002243088B4274D303098B425FD3030A8B4244D3030B8B4228D3030C8B420DD3FF22090212BA030C8B4202D31212090265D0030B8B4219D300E0090A5E
:403EC000C30B8B4201D3CB03C01A5241830B8B4201D38B03C01A5241430B8B4201D34B03C01A5241030B8B4201D30B03C01A5241C30A8B4201D3CB02C01A5241830A8B4218
:403F000001D38B02C01A5241430A8B4201D34B02C01A5241030A8B4201D30B02C01A5241CDD2C3098B4201D3CB01C01A524183098B4201D38B01C01A524143098B4201D38B
:403F40004B01C01A524103098B4201D30B01C01A5241C3088B4201D3CB00C01A524183088B4201D38B00C01A524143088B4201D34B00C01A5241411A00D201465241104699
:403F80007047FFE701B5002000F006F802BDC0460029F7D076E770477047C046084B10B50400002B02D0002100E000BF054B1868836A002B00D09847200000F05BF8C04641
:403FC000000000000845000070B500260C4D0D4C641BA410A64209D1002600F04DF80A4D0A4C641BA410A64205D170BDB300EB5898470136EEE7B300EB5898470136F2E796
:40400000BC010020BC010020BC010020C001002030B500240139A24201D1002005E0035D01340D5DAB42F6D0581B30BD002310B59A4200D110BDCC5CC4540133F8E710B57E
:40404000884202D98B18984203D3002307E08B5C8354013AFBD210BDCC5CC45401339A42FAD1F8E703008218934200D1704719700133F9E7FEE7C046F8B5C046F8BC08BC04
:404080009E467047F8B5C046F8BC08BC9E467047F4010000000000000000000000000000020000000040000000400000000000000100000003000000000000000300000021
:4040C00000000000030000000000000003000000000000000300000001000000000000000000000000000000290055550000000001000000040000000F00000000000000CF
:40410000000000000000000001000000040000000F00000000000000000000000000000001000000060000000C000000000000000000000000000000010000000600000051
:404140000C00000000000000000000000000000001000000010000000A000000000000000000000000000000010000000E0000000A0000000000000000000000000000000E
:40418000010000000200000000000000020000000000000000000000010000000E0000000000000000000000000000000000000001000000010000000000000000000000E9
:4041C0000000000000000000010000000E00000000000000000000000000000000000000010000000100000000000000000000000000000000000000010000000E0000009F
:40420000000000000000000000000000000000000100000009000000000000000000000000000000000000000100000009000000000000000000000000000000000000006A
:40424000794200000C01002001000000000000009C420000100100200200000000000000040200204402002040000000400000000902430002010080320904000001020223
:40428000000005240010010524060001042402020524010001070581030C000A09040100020A0000000705820240000007050302400000000200000070420000180100206F
:4042C00084020020400000001201000202000008B40403F50000010203010000C84200000000000070430000010000000801002095420000A5420000AC420000010000006E
:404300000001002001000000010000000401002006000000040309042C0343007900700072006500730073002000530065006D00690063006F006E00640075006300740065
:404340006F0072002C034400460055002000550053004200200043004400430020005400720061006E00730070006F00720074000400000000000000200100201300000015
:404380000300000000000000030000001B000000000000001D000000020000001C00000001000000B2140000E4140000E4140000E4140000CA140000E4140000C414000044
:4043C000E4140000E4140000E4140000E4140000DE140000E4140000E4140000E4140000E4140000E4140000E4140000E4140000AC140000E4140000E4140000B8140000A7
:40440000E4140000A0140000A6140000E4140000D8140000000000006FC75E10DE8EBD20B149E330BC1D7B41D3DA25516293C6610D549871783BF68217FCA892A6B54BA23A
:40444000C97215B2C4268DC3ABE1D3D31AA830E3756F6EF30000000000140401D2150000EA150000F2150000F2150000D6150000EA150000DA150000DE150000E2150000E4
:40448000EA150000EA150000EA150000EA150000EA150000EA150000EA150000E6150000EA150000E6150000E6150000802C00008C2C00007C2C0000802C0000842C0000AB
:4044C000842C0000183600000C360000183600001236000018360000FA35000018360000183600001836000000360000183600000636000000C2010000000800A120000033
:4045000000000200000000005C01002000000000F8BBFF7F010000002C4500000001002031000000E8010020510100004042000050420000B4420000F0420000F44200003A
:40454000F8420000FC4200000843000014430000184300004443000000000000B11C00000100000000000000C40200200000000000000000FF00000000366E010000E02ED9
:40458000C05D0000180000000000000000000000000000000000000000000000000000000000000000000000000000000000000000000000000000000000000000000000C6
:4045C00000000000000000000000000000000000000000000000000000000000000000000000000000000000E9000000C10000000000000000000000000000000000000011
:020000040003F7
:40FA000000000000FC5F000000600000FC7F03000000000000000000000000000000000000000000000000000000000000000000000000000000000000000000000000008D
:40FA40000000000000000000000000000000000000000000000000000000000000000000000000000000000000000000000000000000000000000000000000000000000086
:40FA80000000000000000000000000000000000000000000000000000000000000000000000000000000000000000000000000000000000000000000000000000000000046
:40FAC000000000000000000000000000000000000000000000000000000000000000000000000000000000000000000000000000000000000000000000000000C88022D6C6
:0200000490303A
:020000000000FE
:0200000490501A
:0C000000000000000000000000000000F4
:00000001FF